:1000000000340020E9320000CF9D0000D53200000E
:10001000D5320000D5320000D532000000000000CB
:10002000000000000000000000000000F1330000AC
:10003000D532000000000000BD330000D5320000C2
:10004000B5350000B5350000B5350000B535000008
:10005000B5350000B5350000B5350000B5350000F8
:10006000B5350000B5350000B5350000B5350000E8
:10007000B5350000B5350000B5350000B5350000D8
:10008000B5350000B5350000B5350000B5350000C8
:10009000B5350000B5350000B5350000B5350000B8
:1000A000B5350000B5350000B5350000B5350000A8
:1000B000B5350000B5350000B5350000B535000098
:1000C000B5350000B5350000B5350000B535000088
:1000D000B5350000B5350000B5350000B535000078
:1000E000B5350000B5350000B5350000B535000068
:1000F000B5350000B5350000B5350000B535000058
:1001000053B94AB9002908BF00281CBF4FF0FF317E
:100110004FF0FF3000F00CB8ADF1080C6DE904CEE3
:1001200000F008F8DDF804E0DDE9022304B07047D0
:10013000704700BF2DE9F04786468C460846089E6A
:10014000154674461946002B40F0C2808542B2FA2B
:1001500082F245D94AB1C2F1200300FA02FC2EFA1C
:1001600003F3954043EA0C0C94404FEA154EA8B2B5
:10017000BCFBFEF8230C0EFB18CC08FB00F943EA8D
:100180000C43994528D9EB1808F1FF3704D299455B
:1001900002D9A8F102072B44A3EB0903A4B2B3FBD5
:1001A000FEFC0EFB1C330CFB00F044EA0344A042AF
:1001B00014D92C190CF1FF3304D2A04202D9ACF1AE
:1001C00002032C44241A43EA07401EB1D440002302
:1001D00034607360BDE8F0874746DDE76346F1E7CA
:1001E00092BB431B01214FEA154EAFB2B3FBFEFC9D
:1001F000200C0EFB1C330CFB07F840EA0343984528
:1002000062D9EB180CF1FF3004D2984502D9ACF159
:1002100002002B44A3EB0803A4B2B3FBFEFC0EFBCD
:100220001C330CFB07F744EA0344A7424ED92C19B0
:100230000CF1FF3304D2A74202D9ACF102032C44E3
:10024000E41B43EA0040C0E7C2F1200320FA03F1B7
:10025000954090402EFA03F303434FEA154EAFB298
:10026000B1FBFEFC0EFB1C10190C0CFB07F841EA5D
:100270000041884504FA02F422D969180CF1FF30D4
:1002800004D2884502D9ACF102002944A1EB08014F
:100290009BB2B1FBFEFC0EFB1C110CFB07F743EA03
:1002A00001439F420ED9EB180CF1FF3104D29F425B
:1002B00002D9ACF102012B44DB1B41EA004192E779
:1002C0006046E3E76146F7E76046A3E76346B7E7C2
:1002D000834206D916B9002108467BE7C6E900E04B
:1002E000F9E7B3FA83F78FB9834201D3724508D88F
:1002F000BEEB020460EB030301209C461EB9002103
:1003000068E73846FAE7C6E9004CF8E7C7F1200C81
:10031000BB4022FA0CF41C432EFA0CF120FA0CF329
:10032000B84001434FEA14490EFA07F5B3FBF9F858
:100330001FFA84FE09FB18300B0C08FB0EFA43EA87
:1003400000439A4502FA07F240D9E31808F1FF305A
:1003500004D29A4502D9A8F102002344A3EB0A0370
:1003600089B2B3FBF9F809FB183308FB0EFE41EA2A
:1003700003418E452CD9611808F1FF3304D28E4514
:1003800002D9A8F10203214443EA0040A0FB0298ED
:10039000A1EB0E014145CE46434602D306D14D4561
:1003A00004D2B9EB020E68EB04030138002EA6D08C
:1003B000B5EB0E0261EB030101FA0CFC22FA07F324
:1003C0004CEA0303F940C6E9003198E74046C5E727
:1003D0004346D9E7034613F8012B002AFBD1181A2C
:1003E00001387047F8B5174D28460AF0D2F8044690
:1003F00028B32A69A968136843F0800313600B6867
:10040000114A072128469847002818DB0F4F104E45
:10041000AB6880215B692846984700280FDB84F091
:10042000010414F0FF0414BF39463146094808F0AE
:100430003BF900214FF4004007F006FEE8E70020FA
:10044000F8BD00BF84AE00000100060068B30000E4
:100450006BB300006FB300002DE9F04F91B084073B
:10046000009302F004030293C2F3C20303F10103F9
:10047000DDF86890039205460E46059340F0BA8178
:10048000041D30B1072909D86FF01B0011B0BDE879
:10049000F08F01F00706341DC6F10806009B4FF0EF
:1004A0000008591E4FF0040A4FF0FF330193CDF8B6
:1004B00010804746C34653460DB1009A2260059806
:1004C000002800F3E8809848009A824203D39748B6
:1004D0008242C0F0E080039AA4EB050E92074FEA37
:1004E0009E0000F103810F2F00F2B180002D00F07B
:1004F000058107F140020DEB020C019A0CF8200C6B
:100500000CF8102C049801300490E7E07A285DD8AC
:100510004B280ED8472859D829282DD8252852D01D
:1005200054D820287AD02338D0F1000B4BEB000BA5
:1005300074E04C382E2849D8DFE800F0704848486D
:1005400048484848484848484B4848484848484828
:100550004859484B4B595959704B6D487048184B86
:10056000184848827F4B48484B487F0000204FF096
:10057000000B4FF0040A38E02A38C0B2012202FA18
:1005800000F010EA0E0F49D110F0625C2FD110EA92
:10059000020B43D06046013C5444B4FBFAF40AFB1E
:1005A00004F4002D61D0A3EB050CA444B4453FF640
:1005B0006BAF002868D1042B47D159F8043B236066
:1005C000043404232AE0019A013A01924FF0000B0F
:1005D00024E011F8010C6C2834D111F8023C002001
:1005E0006C2B8346C5D14FF0080A5346D3E709F177
:1005F000070929F007090734F9E802AB24F00704DA
:1006000035B106982044B0423FF63EAFC4E900AB96
:1006100008344FF0000B4FF0080A534611F8010F51
:10062000002878D0BBF1000F7FF470AF2528F5D1FA
:10063000019B013301934FF0010B4FF0040AECE7EB
:10064000584694E700208346A5E7082B02D06FF0B8
:1006500015001BE709F1070929F00709F9E802234A
:10066000C4E9002308340823D8E768B9042B02D171
:1006700009F10409A4E7082BE9D109F1070929F0D8
:10068000070909F10809EDE7059A013A059259F8B9
:10069000042B009210E7039A900720D5A4EB050ED7
:1006A0004FEA9E004FF0010CBEF5007FCFD20F2F16
:1006B000CDD8F5B107F140020DEB020EC0B2019AA0
:1006C0000EF8200C0EF8102CBCF1000F3FF41AAFFE
:1006D00060F07F000EF8200C08F101080137C5F129
:1006E0000802043406924FF6DA7E97E74FF0000CCA
:1006F000DAE7BCF1000F01D00136EFE702980236CD
:100700000028EBD10098CDE90631FFF763FEDDE963
:1007100006310644E2E7631BB3F5806F97D23DB91B
:10072000A6F10804E018B1E6E8AD00009CC10000A5
:10073000029A28609B082B709DF81030C2B1EB70B4
:1007400085F80280B8F1000F05D008A80022C5F195
:10075000010C97420ED1C5F101030DF120094FF0B4
:10076000000A01930DF1300B574512D1601B8DE645
:100770006B70E5E710F8013B190608D504EB0C0E89
:10078000B64503F07F033FF67FAE04F8013B01322C
:10079000DFE7B8F1000F03D099F90020002A17DB3A
:1007A000029BD3B11AF80B2004F8012B0022019B05
:1007B00098182044B0423FF667AE99F8000004F85C
:1007C000010B0099039220460AF0E6FA039A1444BA
:1007D0000AF1010A09F10109C6E799F8002055F864
:1007E00022300093029B45F822300098FFF7F2FD7B
:1007F000421CDCE76FF00D0048E600BF2DE9F04F2A
:1008000097B000AF90F802A0D7F880B03B62CBF36E
:10081000C0030446FA62BB61894641B94578007855
:100820000AEB800020444D4517D8A0EB0409E3787B
:10083000FB61BAF1000F02D01BF0010F16D1FB696A
:1008400053BBFB6A1BB13A6A4946204698474D465E
:1008500028465C37BD46BDE8F08F461C3046FFF7A2
:10086000B9FD0130304409F10109DCE72378626801
:100870007A62FA6A9900796104EB8301002A40F0F8
:1008800000814D460E4601EB0A094FF000084E4527
:100890004CD101EB0A0610E01BF0020FD1D02378F7
:1008A0009A007A6162687A62FA6A04EB8301002A2C
:1008B00077D14D4601EB0A0690461BF0050F0CBFA1
:1008C00002230123FB62FB6906EB430A0BF00203E0
:1008D000BB625645BCD016F8021B16F8013C54F812
:1008E0002390AF4B994502D3AE4B994536D3BB69A4
:1008F000002B40D0786A08F06EFB00283BD0E94618
:100900008AB06A46A84B53617B6AC2E906314FF44C
:1009100000731384A54B42F8103FA54800234FF401
:10092000125100F01DFD023DCD46D2E716F8013B05
:10093000F96254F82300FFF74DFDD7F88430F96AC7
:1009400001304BB1D7F8883098453EBFD7F8843096
:1009500023F8180008F10108054498E7BB6923B1A2
:10096000786A08F038FB0028C9D11BF0010F05D1C7
:10097000FB6AED1AADE7BB6A002BAAD04846FFF729
:1009800029FDD7F8843053B1D7F8883098453FBF58
:10099000D7F88420431C22F8183008F101080544D8
:1009A00097E7BAF1000F72D01BF0040672D0D04660
:1009B000002607F1480052463B61B9620AF0ECF9A3
:1009C000B96A3B6901EB0A02BA62FA69F969520035
:1009D000FA60BA6A02EB41023A610BF00202BA60B5
:1009E0003A69B96A8A4257D162787A621BF0020F7B
:1009F00032440CBF4FEA580100211BF0010FD2B264
:100A000040F09F801BF0040F14BF40460020BB61E4
:100A10006270A070E1703A6A7969FB6A2046984773
:100A2000051EFFF615AFBB6923707B6A6370FB6917
:100A3000E37041463A6AFB6A84F802A007F1480075
:100A40009847B0F10008C0F2B5807B693A6AA9EB1B
:100A50000A01C91AFB68C91AD7E90A03984700288E
:100A6000C0F2AA80A84408EB00054FF0000B07F184
:100A7000380AB34567D300213A6AFB6A08469847AB
:100A8000E6E656464FF0000807F1380093E7564671
:100A9000D04697E7B04695E7BA6A12F8021BBA62E9
:100AA00012F8015C3E4A54F82500904202D33D4AB8
:100AB00090421ED3BA6932B1786A7B6008F08BFA33
:100AC0007B6800288CD1BA6802BB08F1280207F1C4
:100AD000300C08F10100944407F1580252FA80F0FA
:100AE00008F102080CF8101C5FFA88F800F8105C96
:100AF00076E7BA693AB1786A7B6008F06CFA7B688D
:100B000000287FF46DAF1BF0010F09D006F1280219
:100B100007F13000711C161806F8205CCEB25FE7B2
:100B20001BF0040F3FF45CAF08F1280207F130001E
:100B300008F1010102EB000808F8105C5FFA81F887
:100B40004EE7002063E71BF80A3087F8373054F887
:100B50002390D7F88430FBB133F81B803A6AFB6AE4
:100B6000012107F137009847002825DB0544B8F13B
:100B7000000F06D14846FFF72DFC00F101081FFACF
:100B800088F83A6AFB6A414648469847002813DBD2
:100B900005440BF1010B6CE7D7F88480DEE700BF5A
:100BA000E8AD00009CC1000086B300000400000115
:100BB00068B0000045464BE6054649E6014B186023
:100BC000704700BFB000002080B505460E461746AE
:100BD000984607F075FA03460AF0FCF8DFF818901B
:100BE000044649F80030424630463946A84754F892
:100BF000090002F091FB00BF080000002DE9F0475A
:100C0000058B04462807904611D4022905F00705F4
:100C100040F0CC80204608F08BFC78B10138218B65
:100C2000042811D8DFE800F0C2106D859500012975
:100C30000CBF45F0100545F02005258388F3118889
:100C4000BFF36F8FBDE8F08701F0070AAA4500F0F7
:100C5000A5800027B9463E46A368002B00F0BC8063
:100C600041F00801218388F31188BFF36F8FA168D9
:100C7000002900F0BA800D68002900F0B680D1F894
:100C80000480334652462046C047002D76D02B685C
:100C900029461D46F0E701F007035A1F012A1BD819
:100CA000002221F00701062B276889B2C4E900223F
:100CB00009D13B4603E0628B013262831B68002B43
:100CC000F9D141F002012183204608F031FC0028CF
:100CD0007AD041F0200176E0042B0AD121F00701FF
:100CE00089B22183204608F023FC10B141F0200195
:100CF0002183218B01F0070AAA454FD00027B9466E
:100D0000AAE7236921F0070141F00601062DD3F877
:100D1000009021832DD1B9F1000F3FD041F008019F
:100D2000218388F31188BFF36F8F3A492046C84763
:100D300029E021F00701236941F0040189B2042D63
:100D4000D3F804902183E6D000273E464FF0040AF2
:100D500082E721F00701236941F0050189B2052DE1
:100D6000D3F808902183D6D000273E464FF0050ADD
:100D700072E700273E464FF0060A6DE72B4687E7ED
:100D8000B9F1000FD1D1EFF31188202383F312883A
:100D9000BFF36F8F238B23F008032383258BEA0691
:100DA0002ED525F01003238305F007056669218BF6
:100DB000002EBFF670AF00232768C4E9003321F08E
:100DC000070141F001012183218B01F0070AAA45A7
:100DD0004FF000097FF440AF002F9CD041F0080194
:100DE000218388F31188BFF36F8F002FC8D03D682F
:100DF000394633465246204608F0C6FB2F46F4E7F4
:100E0000AB067FF51BAF25F02003238305F0070514
:100E100000E700BFB59500002DE9F047DFF85880E6
:100E2000044607464FF0010914B93846BDE8F0877B
:100E300094FAA4F5B5FA85F509FA05F32E0108EB45
:100E400005156FEA030A24EA03042B7B002BEBD081
:100E500058F806301B694BB946440422736828468B
:100E6000196807EA0A0700F067FADDE7284698479D
:100E70000028D9D1F0E700BFE0B0000030B510493C
:100E8000104889B0002209F090FE0F4D0F49002252
:100E90000023CDE9062300240E23CDE90334CDE958
:100EA00001440B4B00944FF44072284606F01CFEA0
:100EB0000849284609F0E8FC204609B030BD00BFCB
:100EC000D90E000050080020C8030020801A00201E
:100ED000DD1100003AB40000014806F005BC00BF77
:100EE000B80200202DE9F04780461F480F4608F061
:100EF000F2FC0646002830D000252846BDE8F087E1
:100F0000237B6BB12368DB680BB1204698472368CD
:100F10001B69D3B9636804221968204600F00CFAF3
:100F2000013610344C45EBD3B8F1000FE5D0002D5D
:100F3000E2D02846FFF770FF0546002FF7D00021CA
:100F40004FF4A47007F080F8F1E720469847002896
:100F5000E0D00AFA06F31D43E2E7044CDFF81090F4
:100F600005464FF0010ADDE7380C0020E0B0000034
:100F7000F0B00000014B53F8200070471CB1000096
:100F800008B5034608462BB1044A136000F07EFC06
:100F9000002008BD6FF01500FBE700BFB400002083
:100FA00010B5044C237813B9034806F09DFB0123C8
:100FB000237010BD0E1A0020B802002010B50446A0
:100FC0000B4808F088FC5CB1BFF35B8F094B53E81A
:100FD000001F013943E80012002AF8D1BFF35B8FEC
:100FE000054809F0EEFD0548BDE8104006F07CBB61
:100FF000300C0020340C002050080020B8020020E3
:101000000020064BBFF35B8F014653E8000F43E817
:101010000012002AF9D1BFF35B8F7047300C00201B
:1010200070B5FFF7EDFF084C084E0546B44200D3FB
:1010300070BD63685B792BB123685B6813B1294687
:10104000204698471034F1E7E0B00000F0B000000F
:1010500010B5044C0449204608F0EBF8034B1C6023
:1010600010BD00BF0002002008B10000280C0020C5
:10107000084A094808B500231370084A1360084A53
:101080004FF400411360FFF77BFFBDE80840FFF716
:10109000DFBF00BF0F1A0020D3980000300C0020E3
:1010A000340C0020014600220148002308F0E2B879
:1010B00000020020014808F078B900BF00020020BB
:1010C000024B0146186808F0C4B900BF280C002084
:1010D000014808F0F9B900BF0002002070B5284BA4
:1010E000187800284BD0FFF7E5FF054690B1BFF315
:1010F0005B8F244B53E8001F013943E80012002A9C
:10110000F8D1BFF35B8F204C204EB4422DD328463C
:10111000FFF7D6FF1E4B1F4C1B68002B19DD09F093
:10112000FDFC4FF47A72A0FB020302FB0131C30BFA
:10113000D4E9002043EA41439B1A4FEAD13140F2FF
:10114000E93261EB0001934271F1000101D3FFF735
:1011500067FFD4E9003213F57A7342F10002C4E963
:101160000032BDE87040FFF7B3BF63685B7923B11D
:10117000236829461B68204698471034C5E770BD90
:101180000E1A0020340C0020E0B00000F0B0000087
:10119000300C00204808002070B50D4D297861B949
:1011A0000120FFF79FFE0B4C0B4EB44206D3FFF716
:1011B00095FF0028FBD101232B7070BD63685B791C
:1011C0001BB1236820469B6898471034EDE700BFA9
:1011D0000F1A0020E0B00000F0B0000000212DE95F
:1011E000F0470846FFF77EFE044658B340F26768B2
:1011F0004FF0000909F0EEFD1B4B1C4A1B58136011
:1012000033B11B4B1B68092B02DD1A4806F06CFA40
:10121000194FDFF860A0002544B12046FFF7FCFD20
:10122000044618B94FF0FF384FF0FF39FFF756FF6B
:10123000064628B9B5B942464B46504606F078FAFC
:101240003546E9E74FF0FF384FF0FF39D2E72B681A
:101250009B691BB100221146284698471035BD42B4
:10126000F5D3E8E7054DFAE7080000002C0C002054
:10127000340C0020B8020020F0B00000E0B0000004
:1012800013B5184808F027FB174B1B7873B1EFF321
:101290001184202383F31288BFF36F8FFFF71EFFA3
:1012A00084F31188BFF36F8F02B010BD0F4B1B6822
:1012B000002BF9D050B900220023CDE900230C48BF
:1012C0004FF40042002307F063F9EDE70928EBD162
:1012D000074809F076FC074802B0BDE8104006F068
:1012E00003BA00BF340C00200F1A00202C0C002081
:1012F00050080020B802002010B5064B1B680446B9
:1013000098472146A060044808F030F8BDE8104036
:10131000FFF7B6BFB400002000020020044A054BCE
:101320009B1AB1EBD30F34BF52F831000020704745
:1013300068B00000E0B00000084BC31A10B41B11E5
:1013400044680133237143689A71436819604368A4
:1013500001225A7110BCFFF723BE00BFE0B00000AD
:101360002DE9F04F8FB004AFC1F34A28B8600D46A5
:1013700091467B600C0DB8F1000F63D0002607F199
:1013800014034FF0040B4FF00A0AC7F80C80C7E9AA
:1013900007667E620193CDF808B0CDF800A007F192
:1013A0001C03F96832464846FFF728FAB0F5006F8B
:1013B00003461CD36C468AB0D9F8041004AB264807
:1013C000C3E9050140F2FF71D9611A464FF400717B
:1013D0001984224B42F8103F214833464FF41251F2
:1013E000FFF7BEFFA5462C37BD46BDE8F08FC0F322
:1013F0000A0804F11700184420F0070080083B6039
:10140000FFF750FE68F35325044690B13B68154A38
:10141000C7E9083600F1100107F11403F961CDE9BD
:1014200000A3CDF808B0F96807F11C034846FFF7A0
:10143000E5F968F353257B68B9682A46204608F029
:1014400080FAD0E704F1170020F007008008FFF7CA
:1014500029FE0446EDE700BF4FB400000400000180
:1014600078B00000179900002DE9F04F87B0DDE952
:101470001279DDE9105A0446039193469846BFB1AC
:10148000CDF800903B46524610210020CDF8149034
:10149000FEF7E2FFB0F5006F06460AD3184A194876
:1014A00040F2FF73022107B0BDE8F04F08F0A2BA86
:1014B0003E4605F11700304420F0070004F0070411
:1014C0008008FFF7EFFD0BF0070BE40044EA8B14F4
:1014D00044EA462444EA0554054640B13FB1CDF8FC
:1014E00000903B46524631461030FEF7B5FF039957
:1014F00043462246284607B0BDE8F04F08F021BA1F
:101500008EB4000078B00000406820B1034BC01AD0
:1015100040F3CF0070474FF0FF30704768B00000D5
:101520000EB403B503AB014653F8042B04480193F2
:1015300002F0DAF902B05DF804EB03B0704700BFC7
:10154000579A0000CA0605D48B064CBF02490349CE
:10155000FFF7E6BF704700BFC7B40000C6B4000085
:101560002DE9F04F89B09B46149B06939DF84CA043
:10157000159B0593169B179E049304460D469046B3
:10158000BAF1000F00F09D8006F48073079308F015
:10159000C0F906F00209024600283ED091492046D3
:1015A000FFF7BEFF0746B9F1000F08D016F0440F51
:1015B00035D18D492A462046FFF7B2FF074406F091
:1015C000010353B1894B8A4953F82A20894B20469D
:1015D000002A08BF1A46FFF7A3FF06F48073002B0A
:1015E00049D006F00803002B63D1B8F1000F66D094
:1015F000814942462046FFF793FF0546069B3D443E
:10160000002B6DD1049B002B73D1F30700F1E48014
:1016100031462046FFF796FFD8E00746C3E7774BF1
:1016200018680028CAD0764B4FF47A791B68B5FB4E
:10163000F3F54FF46161B5FBF0F300FB135509FBC3
:1016400005F54FF03C0CB3FBF1F201FB1231B5FB99
:10165000F0FEB1FBFCF300FB1E550CFB131109FB64
:1016600005F50091B5FBF0F56649CDE901E52046A9
:10167000FFF756FFA2E706F00803EBB1624B6349A0
:1016800053F82A202046FFF74BFF0546B8F1000F1C
:1016900005D0594942462046FFF742FF0544BBF1B9
:1016A000000FABD05A495A462046FFF739FF054490
:1016B000A4E74FF0000BE1E706F00805E6E7454632
:1016C0009CE7BBF1010F069B06D1002B64D1049B64
:1016D000002B7BD000250CE0002BF8D04D485CE0BF
:1016E0004D48069B4D49224607F044FC049B002BC5
:1016F00068D0DFF82C81DFF82C91049F3146102F41
:10170000204628BF1027FFF71DFF4FF0000B5D4557
:1017100045DC059B49461A782046FFF701FF4FF04C
:10172000010B1BF0070F03D141462046FFF7F8FEDF
:101730005F453BD9059B494613F80B202046FFF730
:10174000EFFE0BF1010BBBF1100FEAD13649204639
:101750004FF0000BFFF7E4FE5A46059B9A5CA2F19E
:1017600020015F2928BF2E2230492046FFF7D8FEEE
:101770000BF1010BBBF1100F1DD01BF0070F03D1B4
:1017800041462046FFF7CCFE5F455A46E5D8414624
:101790002046FFF7C5FEEBE71F485546A1E7414647
:1017A0002046FFF7BDFE0BF1010BB0E720492046B4
:1017B000FFF7B6FEC5E7059B3B440593049BDB1B87
:1017C00004939AD1BAF1000F7FF41FAF204609B0FD
:1017D000BDE8F04F08F032B9064A05492046FFF748
:1017E0009FFE15E7CEB40000D2B400002CB100007B
:1017F000F7B40000C9B40000FAB40000400C0020A7
:101800003C0C0020DBB4000040B10000FEB400003E
:1018100004B500008D9A0000579A0000E9380000D6
:1018200011B5000009B5000013B5000015B50000A2
:101830000FB5000073B542F20F738B4228BF0B4601
:1018400005680F4A04460521684606F03FFF6368B5
:101850000C495B6806460B22284608F0E1F86368ED
:101860003246694628465B6808F0DAF8636806493C
:101870005B681B22284608F0D3F802B070BD00BF99
:1018800091BE000034B5000018B50000074A0021E1
:101890000123904206D8064A01B901231360054B83
:1018A0001860704740085B000121F2E740420F00DA
:1018B0003C0C0020400C0020F8B5074F0D460446B4
:1018C0004618B44201D12846F8BD14F8011BBB6884
:1018D00001485B689847F4E7ACAE0000014B036039
:1018E0000020704788B10000F0B40C4B0C4E5F6ACA
:1018F0000C4BB34203D36FF08500F0BC70475D68BA
:10190000BD4209D31C693CB195F802C00579AC45CC
:1019100002D12346F0BC18472433EAE7680C0020C4
:10192000C4030020A00300202DE9F047134CDFF88A
:101930005080DFF8509005460E461746444503D3C5
:101940006FF08500BDE8F0876268D9F824309A42CC
:1019500012D3A36983B190782979884205D13A4698
:1019600031462846BDE8F04718475279012A03D18D
:101970003A463146284698472434DFE7A003002042
:10198000C4030020680C00202DE9F0410B4CDFF867
:10199000308005460E461746444502D36FF0850059
:1019A00009E063690BB92434F6E73A463146284624
:1019B00098470028F7D1BDE8F08100BFA0030020C0
:1019C000C4030020024B00221A605A60704700BF17
:1019D000230D002070B50B4B0B4CA34201D300200C
:1019E00070BD196A1E7F00220439D5B2AE4201D8FB
:1019F0002433F2E7013211F832508542F5D101204B
:101A0000EEE700BFA0030020C403002008B5044A8D
:101A100003460121034808F0A4F8002008BD00BFD8
:101A20007AB50000C8B0000038B5054608F035FAB0
:101A300010F1780F044611D10D4A0E482B460221B1
:101A400008F08FF8284608F08EF80B4AD2F8C43018
:101A500023EA0003C2F8C430002407E00028F1D0D4
:101A6000064A04482B46012108F07BF8204638BD81
:101A700095B50000C8B00000680C0020B6B50000A5
:101A800008B509480378C3F341130A3350F82330EB
:101A90003BB100F1080200F110019847C043C00FAC
:101AA00008BD1846FCE700BF680C002004282DE99B
:101AB000F74FDFF89C9004460F4615D001282FD130
:101AC000DFF8908098F8B93053B300F0EBFE224D68
:101AD0004D4522D22A6A4FF0000A2B7F5FFA8AF620
:101AE000B34204D82435F3E7FFF76CFFE8E702EBD5
:101AF000C6060192307908F0D0F98346307908F0B3
:101B000032F8D8F8C430019A23EA0003BBF1000F81
:101B1000C8F8C4300AF1010ADFDA002388F8B930C6
:101B20000D4D4D4508D30B4B1B6A6BB13946204612
:101B300003B0BDE8F04F1847EB681BB13A462146A9
:101B4000284698472435ECE703B0BDE8F08F00BF86
:101B5000C4030020680C0020A003002073B5C4B2A9
:101B600063060D468DF8074007D02046FFF732FF89
:101B7000B0B1144B93F8BA0090B1124E23468DB118
:101B8000114A1248032107F0ECFF9DF8070002F00C
:101B900073FBF3691BB10DF1070108209847012081
:101BA00002B070BD0A4A0948032107F0DAFF9DF828
:101BB000070002F093FBF369002BF0D00DF1070151
:101BC0000920EBE7680C0020D8B50000C8B0000081
:101BD000EBB5000073B5044680788DF800002379DA
:101BE0006279294D43EA0223ADF80230E37803F02D
:101BF00003038DF8043007F0B6FFD5F8C43018425F
:101C000006460CD0A478204600F02EFE2046FFF7B2
:101C10000BFF08F033FE10B9962006F033FA684641
:101C200002F0FCFA10F1780F9DF800301BD1174A32
:101C30001748022107F095FF9DF8000002F08AFB8B
:101C400010F1780F19D19DF80030124A1048022186
:101C500007F087FFD5F8C4300120334385F8B90079
:101C6000C5F8C43007E00028E6D00B4A0848012137
:101C700007F077FF002002B070BD0028EAD09DF881
:101C80000030064AF2E700BF680C002000B60000F2
:101C9000C8B0000047B6000023B6000067B60000D9
:101CA0002DE9F047A34EB36904460F461546FBB92C
:101CB000237803F01F03012B00F09D80022B00F01E
:101CC000048133BB94F900002A686178002834DA73
:101CD000062912D008292BD0D9B9012313705170CD
:101CE00096F8C3305B0043F00103137002232AE12E
:101CF00098470028DCD100200DE06288100A011FFF
:101D00000129844605D9072803D8716AD2B20C7814
:101D10001CB96FF01500BDE8F0874E78664503D119
:101D20009A4200F00B8101332144F0E70B780AE17D
:101D300096F8BA301370012305E101390829E8D873
:101D400001A353F821F000BFE11D0000131D0000A6
:101D5000EF1D0000131D00006D1D0000131D00008D
:101D6000131D0000131D0000791D0000A07802F073
:101D700017FA0028BFD0CCE76388756A63BBFFF70A
:101D800021FE638886F8BA30F369002BB3D06A4924
:101D900003209847AFE76B78042B10D0052B11D0A8
:101DA000022B04D16F796388BB4208BF01202B78D6
:101DB0001D442B78002BEED10028AAD0DFE795F840
:101DC0000380F4E76388BB42F1D1B8F1000FEED194
:101DD0002846FFF7FFFEEAE7FF270020B846E8E7BE
:101DE0006388012B95D1002386F8C33083E763888D
:101DF000012B8ED1F8E796F8BA30D5F800C0002B49
:101E000087D0756AA38894F804E02A4610780028E1
:101E10003FF47FAF5178022904D192F80480F04555
:101E200000F293800244F1E78CF800208CF8012046
:101E3000396060E7154494E00B2A7FF46AAF00270D
:101E40004FF0FF08C146BA4606E06B78042B0FD06E
:101E5000052B21D02B781D442B78002BF5D1F3696D
:101E600013B1514607209847002F7FF444AF50E745
:101E700095F80280A38895F803909845EAD1638885
:101E80009945E7D1B8F1070F1CD806EB0803AA461D
:101E900083F8BB900127DDE7A3884345DAD1A37817
:101EA0004B450AD0AF78384600F0DEFC3846FFF7E5
:101EB000BBFDB0FA80F77F09CCE72846FFF78AFE22
:101EC0000746C7E7AA460027C4E794F900206378CD
:101ED000002A18DA002B7FF41CAF24792D686306E2
:101EE0000AD02046FFF776FD00283FF412AF96F89F
:101EF000BA30002B3FF40DAF2946204602F00EFA0F
:101F000000236B70F2E6012B08D0032B7FF401AFA6
:101F10006388002B7FF4FDAE012103E06188002976
:101F20007FF4F7AEA088FFF719FE00287FF4E3AE38
:101F3000EFE600BF680C0020220D00200228296077
:101F40007FF4F4AE4B883B60D5E694F900006278EC
:101F50000028BFF671AF002A3FF466AF0A2A7FF46B
:101F6000D8AE2A78002A3FF4D4AE697804297FF4E9
:101F700061AFA9788B427FF45DAF072B96BF9B19A9
:101F8000002393F8BB308CF80030D4E62DE9F84FED
:101F9000DFF83CB0DFF83CA005460F469046994676
:101FA00004264B4642463946284602F0FDF910F118
:101FB0000B0F044609D12B465A460221504607F022
:101FC000D0FD05F0BFFF013EEBD12046BDE8F88F04
:101FD00088B60000C8B0000013B5164C237DF3B9D5
:101FE000E268A168019201AB8020FFF7CFFF019A60
:101FF000A3681344A360E3689B1AE3606BB962B102
:102000002369E2889A4208DD94F8C82093FBF2F134
:1020100002FB11330BB90123237502B010BD00235D
:102020001A4619468020237502B0BDE8104002F020
:10203000BBB900BF680C00207FB500230D4601939B
:102040000646002862D100293AD108220B460DEB42
:10205000020107F03BFF002804DA802002F00CF9AF
:1020600004B070BD2E4C029A2260039A626004F1A3
:102070003802A2609DF90820BDF80E302575002AAF
:10208000C4E903550FDB802B09D9264A26480121D4
:1020900007F0A7FC802002F0EFF82846DEE713B136
:1020A000C4E90333DCE7FFF7EBFC0028D5D0E28876
:1020B00023699A42D4BFE260E360FFF78DFFCFE768
:1020C000174CD4E90212002A01AB05DC024607F0E6
:1020D000FDFE0028C4DAC0E707F0F8FE002804DAA5
:1020E000802002F0C9F83046B8E7019AA36813448B
:1020F000A360E3689B1AE360002BB1D104F13803BD
:10210000A360FFF7BDFC0028D7D1A6E78028A7D1A0
:10211000034BDA68002AD0D11B7D002BCDD19FE77D
:10212000680C0020AFB60000C8B00000054B064A9E
:102130009A62064ADA62064A1A63064A58629A6145
:1021400000207047680C0020A11C0000E918000066
:1021500089190000291900002DE9F34104464C4D6E
:102160004C484FF0FF334FF0FF3205F0D7F995F8A8
:10217000B8306BB1484A4948022107F032FC6FF091
:102180007704444805F042FA204602B0BDE8F081E9
:102190006B6A6BB900F0D4F8FFF7C8FF6B6A3BB904
:1021A0003F4A3E48012107F01CFC4FF0FF34E8E7AE
:1021B0003C482C62E8616E6A02F038FA01F0BEFF1A
:1021C000041EDEDB00F090FB041EDADB7378012BCB
:1021D00001D1F3793BB9344A3048012107F001FCC1
:1021E0006FF01504CDE70026684685F8C830ADF8D5
:1021F00002308DF804608DF8006002F00FF8041EC4
:10220000BFDB802768468DF8007002F007F8041ED7
:10221000B7DB2649304602F0F5F9041EB1DB23494D
:10222000384602F0EFF9041EABDB214CDFF8848066
:1022300044451AD3002002F08DF8041EA1DBD5F826
:10224000C430802043F00103C5F8C43002F082F8A6
:10225000041E96DBD5F8C43043F48033C5F8C4308F
:10226000012385F8B83000248BE7276A0026227FF7
:10227000F3B29A4201D82434DAE707EBC30257F8E5
:102280003310107902F0BEF901360028EFD08CE748
:10229000680C002094020020C8B60000C8B00000FE
:1022A000EBB60000AD1A000010B7000039200000A6
:1022B000A0030020C403002030B51F4B8BB005AA3B
:1022C00003F1100518685968144603C40833AB427B
:1022D0002246F7D11B7823701022002101A808F0B4
:1022E00069FD12220021154808F064FD102101A8A3
:1022F00007F0F4FE00281BDD0828B8BF08200938C5
:1023000001AB0E491A18002012F8013F0AAC04EB89
:10231000131403F00F0328336B44013014F8144CEA
:1023200013F8143C0C7008284B7001F10201EBD13A
:1023300002480BB030BD00BF4AB70000121A00209F
:102340002DE9F04F8A4B87B093F800A000AFBAF1A7
:10235000000F04D087481C37BD46BDE8F08F854C80
:1023600000264FF00119FE603546B04623783BB990
:10237000814B02349C42F3D17D4A01231370E9E77B
:102380006378052B1DD8DFE813F0AF000600F000DE
:10239000AF001F005000402387F810A07B8287F811
:1023A00014A007F1100001F00DFF40B108237B825B
:1023B00007F1100001F006FF08B1A7F812A07B8A10
:1023C000E37123781C44D1E7E378002BF9D1A3789B
:1023D00013B3FB680133DBB2FB60F2E76B689C422E
:1023E0001CD02435654B9D42F8D36D4688B06A46B3
:1023F000634BC2E90534032342F8103F61480023D0
:102400004FF4C251FEF7ACFFAD465E485E4A012173
:1024100007F0E7FA00209EE75C4DE3E7AB68002B8E
:10242000D7D0F96820469847D3E7002D5AD1584AAB
:102430005448012107F0D5FAE7E72B6AA07803EBAF
:10244000C2010B79984247D14FF0010BE07800F0C0
:1024500003003875207994F805C040EA0C20788292
:1024600094F9020000285FFA8BF328DA0BF11000D0
:102470004FF0010C0CFA00F010EA090F27D143F0DD
:102480008000387407F11000C7E90031BA6001F02C
:1024900099FED7E901123B68C8B93A7CA27012F0E4
:1024A000800F18BF10330A7118BFDBB24FF0010262
:1024B00014BF9A4002FA0BF249EA020981E70120AF
:1024C00000FA0BF010EA090F01D11846D9E70BF119
:1024D000010BBBF1100FB9D101322B7F9A42ACD363
:1024E0002C4AA5E70022F8E7032E24D1FFF7E4FEEB
:1024F0008346A0B1FDF76EFF034680B1102806D0D9
:10250000B860254A1F48022107F06BFABB68102B00
:10251000A8BF10231A465946A01C08F03DFC23789A
:102520006FF00201E218091B04EB5303D14209D5F5
:102530000136F6B245E7002EF1D1B8F1000F08D10F
:10254000164A75E702F801AC13F8010902F8020D0A
:10255000ECE7A4EB080388F80230C3F3072388F8FC
:102560000330FB6888F80430E2E7A04629E700BFA3
:10257000111A0020D80200209F030020C40300206D
:102580005BB70000C0B0000041B80000A00300200D
:102590007BB70000BCB70000D9B7000024B800002A
:1025A00010B5094B00211A461C78844204D15C689E
:1025B00014B102EB811010BD0131042903F1400375
:1025C000F2D10020F7E700BF340D00202DE9FF41D4
:1025D00050F8283C10F82C6C103304460AD10369DB
:1025E00050F8202C98073DD5D2B9590715D50023AE
:1025F00044F8283C54F8283C10330BD054E90775B4
:1026000054F8148C08F03AF9002857D03248214683
:1026100008F018F904B0BDE8F08143F00403236129
:1026200003AB54F8241C3046FFF7B0FC034640B11E
:102630002A4A2B480096012107F0E6F96FF01503AE
:10264000D6E7039A54F8243C134444F8243C54F845
:10265000203C9B1A44F8203C54F81C3C134444F89A
:102660001C3CC7E703AB54F8241C304601F026FF9E
:1026700003460028DCD1039D54F8243C2B4444F845
:10268000243C54F8203C5B1B44F8203C54F81C3C90
:102690002B4444F81C3C002DA9D0304601F0CCFF5F
:1026A000B5FBF0F303FB1055002DA0D154F8203CEE
:1026B000002B9CD0304601F057FF9BE744F8180CE4
:1026C000A4F1100005F010F8002DA3D042463946C1
:1026D0003046A8479EE700BF880800206FB800007A
:1026E000D8B000004B1E012B73B506460D4614D81A
:1026F000FFF756FF044690B9012D0ED101AB012220
:102700000DF10301304601F0D9FE019B002BF5D1FC
:102710000C4A0D48012107F064F902B070BD08F0C1
:10272000ADF804F12C0108B1012D05D1084602B025
:10273000BDE87040FFF74ABF044802B0BDE87040F2
:1027400008F080B88CB80000D8B0000088080020DD
:102750002DE9F74F054601911646984607F044FAD1
:10276000002871D1EFF311832022009382F31288A5
:10277000BFF36F8FDFF8D8908346002200234846CE
:1027800004F0D6FFA0B9DFF8CCA04FEA8B170AEB14
:102790008B1BDBF8044014F1100F20D12E4A2F4878
:1027A0002B46012107F026F9484604F09DFF0DE075
:1027B0000BF1010BBBF1040F09F14009DDD1284AEF
:1027C0002648012107F00DF96FF00B04009B83F3FD
:1027D0001188BFF36F8F204603B0BDE8F08F0C99CE
:1027E000019BCBF814100D99CBF81000CBF8181002
:1027F00028466FF00F01CBE902360AF80750CBF8F4
:102800003C80CBF8041001F017FF68B1284601F0B6
:1028100013FFB6FBF0F101FB10662EB1DBF83C10A4
:1028200041F00401CBF83C1018F0020F07D007F17B
:102830002C010C48514408F005F80024C6E728464E
:1028400001F092FE0446C1E76FF00F04C3E700BF3A
:10285000500D0020340D0020C1B80000D8B0000099
:10286000A6B800008808002010B5EFF311842023DB
:1028700083F31288BFF36F8FFFF792FE50B1436866
:10288000103307D16FF08B03436000F12C01044833
:1028900007F0D8FF84F31188BFF36F8F10BD00BF1E
:1028A00088080020F8B50E4C04252027EFF3118688
:1028B00087F31288BFF36F8F6368103307D16FF00F
:1028C0008B030848636004F12C0107F0BBFF86F31B
:1028D0001188BFF36F8F013D04F14004E6D1F8BDCC
:1028E000340D00208808002070B50A4C0A4E0025DF
:1028F0003146204607F08AFF0122A4F1100011465C
:10290000013507F047FF042D04F14004F0D1002009
:1029100070BD00BF600D0020CD25000070B50446DD
:102920000E4601791548154607F03AF910B394F9A7
:1029300000206378002A16DB202B04D0222B0ED037
:102940006FF085000AE02B681A6840F8102C9A880E
:1029500020F80C2C9B7900F80A3C002070BD63889D
:1029600000F8093CF9E7212BEAD110380723286049
:102970003360F2E76FF01200F0E700BF340E002082
:1029800008B50146034807F019F910B1012300F812
:10299000073C08BD340E00200169012381F84B304B
:1029A0000B6833B191F849301BB10248083107F088
:1029B00049BF7047880800200169012381F84A3027
:1029C0000B6833B191F848301BB10248083107F069
:1029D00039BF70478808002070B5012382F848305D
:1029E00013680D4614463BB192F84A3023B10E48A5
:1029F00002F1080107F026FFD4F890309A681B69AD
:102A00009A4205D17DB904F1180140F6CD4204E0A7
:102A100004F11801002DF8D00022BDE870400248F2
:102A2000002304F0EBBF70BD8808002070B5056975
:102A300095F89E00E0B195F89F30D3B985F84830FD
:102A4000EFF31186202383F31288BFF36F8FD5F83D
:102A5000900006F0B7FE044686F31188BFF36F8F2F
:102A600005480022002305F1180104F0C7FF2046A5
:102A700070BD0020FCE700BF880800200D4A034617
:102A80000021A0F848101068C3F89400908892794B
:102A9000A3F8980083F89A2083F89C1083F89B1081
:102AA000A3F89E1083F8A010402203F14C0008F018
:102AB00081B900BFF8B00000F0B5D0F88C305B6889
:102AC0001B6A1F7D85B00446384607F08DF8064620
:102AD000F8B994F88630E3B1A06F4FF4806203A98F
:102AE00006F08FFE0546A0B18306A4F1180308BFC7
:102AF00000F1FF3584F830600193074B0399009390
:102B00002A4602233846FFF723FEA06F294606F027
:102B100098FE05B0F0BD00BFD929000010B50469CA
:102B20000023C4F8A8300C4BC4F8A400596804F181
:102B3000A80269B9C3E9002204F10800074907F0B7
:102B400065FE04F11800064907F08CFE002010BD58
:102B50000A605A60F0E700BF340E0020139C0000AA
:102B6000B92A000030B54FF40033426805690D4CB6
:102B700085B042F2A100CDE90103002385F89D3024
:102B8000106AADF80C1000790A2201A9FFF7FEF9CE
:102B900095F89D3023B9012007F0F6FC013CF7D1F0
:102BA00005B030BDA186010073B504698DF807102A
:102BB000002384F848302025EFF3118685F312882E
:102BC000BFF36F8F0122D4F890000DF1070106F0DA
:102BD000F9FD86F31188BFF36F8F01280AD007F043
:102BE0004DFE10B994F8A1306BB9094B1A780AB9A7
:102BF00001221A702122002304F11801054804F073
:102C0000FDFE02B070BD0021212005F01DFAD3E7C2
:102C1000241A00208808002037B514460A1E0546ED
:102C200020DDD4F88C0004F14C0106F0CBFD01232B
:102C300084F8493023683BB194F84B3023B11148F4
:102C400004F1080107F0FEFDD4F88C104B684A69C6
:102C50009A1ACB699B1A3F2B04D8012384F8A03021
:102C600003B030BD94F89E30002BF9D0064B009392
:102C700001940123402204F14C012846FFF768FD2E
:102C8000EEE700BF88080020192C0000F7B50D46BC
:102C900001461D4806F078FF044610B30646691E3B
:102CA00056F8A4395F6805291BD8DFE801F01C1A23
:102CB000031C222610F8061C99B9012300F8063CD3
:102CC0003B6A3246187BFFF7A7FF14F85C2C42B929
:102CD0003B6A187D0D4B0093019602231146FFF7C6
:102CE00037FD03B0F0BD304603B0BDE8F040FFF75C
:102CF000C5BE012304F8053CF3E710F8053C002BA2
:102D0000EFD00023F6E700BF340E0020D9290000E1
:102D100037B5094D0949002400944FF0FF334FF4B3
:102D20008062284604F02CFE0549284607F0ACFDD9
:102D3000204603B030BD00BF88080020C01D002021
:102D400004B900002DE9F047064600AF0C46002903
:102D500036D0E9468AB0D1E90012A3686D46214811
:102D6000A8464FF0050AC5E90501C5E9072348F85B
:102D700010AF1D48424600234FF42151FEF7F0FAF0
:102D8000CD46D4E903126369AD461848C5F810A0D2
:102D9000C5E90501C5E907231348002342464FF45E
:102DA0002151FEF7DDFACD46E369114A0E480121B3
:102DB00006F020FEA3690F4A0B48012106F01AFE17
:102DC000012E07D1EFF305830B4A0748103B31462C
:102DD00006F010FE2146304604F0C0F9BD46BDE8BD
:102DE000F08700BF0DB90000A0B000003CB90000A2
:102DF0006BB900007AB90000A8B9000030BFFFF736
:102E0000FDBF00BF2DE9F0410B4EDFF8308006EB2F
:102E10000807CC1B054632460949204607F0BCFF8F
:102E2000A01942460021083C07F0C4FF2C6707F1B7
:102E30000800BDE8F08100BF0000000004000000B1
:102E4000F0B00000074A936893F90E10002907DBE1
:102E5000526993421FBF044A536843F08053536042
:102E6000704700BFD419002000ED00E070B5294C78
:102E700006460D462848294906F0B0FFA36AD90442
:102E80003CD52548264906F0A9FF1720A36A1A0554
:102E900004D52148234906F0A1FF18201D4CA36A40
:102EA0009B0512D51C48204906F098FFA36BA26A27
:102EB000100409D51D4A1848012106F09BFD1EB1DA
:102EC000A36A23F40043A3621920124CA36A590594
:102ED00004D51148164906F081FF1A20A36ADA05C5
:102EE0000ED50D48134906F079FF1B20094A936A55
:102EF00043F47F43936200232B7070BD1620C5E717
:102F0000A36A9B04F2D504480B4906F067FF1C2016
:102F1000ECE700BF00ED00E0A0B00000BBB900008E
:102F2000D1B90000E2B90000F5B900000EBA000006
:102F300023BA00003EBA000056BA000010B5204C7B
:102F40002049214806F04AFFA36A990136D51E4858
:102F50001E4906F043FF1E20A36ADA0104D51A4871
:102F60001B4906F03BFF1F20154CA36A1B0304D529
:102F70001548184906F032FF2120A36A590304D5E9
:102F80001148154906F02AFF22200D4CA36A9A0326
:102F900004D50D48114906F021FF2320A36ADB0365
:102FA00004D509480E4906F019FF2420044A936A03
:102FB0006FEA03436FEA1343936210BD1D20CBE712
:102FC00000ED00E085BA0000A0B000009DBA00004E
:102FD000B0BA0000CABA0000E8BA00000DBB000099
:102FE00027BB00002DE9F843364D80468946364818
:102FF0003649174606F0F2FEAB6ADE0627D534499D
:10300000314806F0EBFE1124AB6A1D0704D53149A7
:103010002D4806F0E3FE12242A4DAB6A980718D516
:103020002D49294806F0DAFE6E6BAB6A190646D5C3
:103030002A4A25483346012106F0DCFCB9F1000F8D
:1030400003D0AB6A23F08003AB62132403E01024A7
:10305000DAE76FF015061B4DAB6ADA0704D5204995
:10306000194806F0BBFE1424AB6A9B0604D51D4923
:10307000154806F0B3FE1524124B9A6AD50602D401
:103080009A6A90070AD55B68190507D5414630460C
:1030900000F046FA10B180F309880224094B9A6ABD
:1030A000920642BF5A6A22F400525A629A6A42F069
:1030B000FF029A6200233B702046BDE8F8836FF060
:1030C0001506C2E700ED00E0A0B0000052BB000012
:1030D00068BB0000E2B900009BBB0000B3BB00006E
:1030E000C9BB000056BA00002DE9F041664B8AB01A
:1030F000D3F8048000AF0446C8F30805002686F321
:103100001188BFF36F8F02F07F43B3F17F4F07D178
:1031100002F00C03082B12D15C495D4806F05EFEFC
:10312000002634460023FB71EB1E092B00F28A8037
:10313000DFE803F00A80837D888888888886100706
:103140004CBF0C460126EDE7524951484E4D06F062
:1031500045FE0023FB71EB6A9A0705D54E494C48A2
:1031600006F03CFE002333E0EB6A002B01DA4B490A
:10317000F5E7EB6A5B00F5D54949454806F02EFEB8
:103180006B69A26943F480736B61BFF34F8FBFF328
:103190006F8F6B6932F8022C23F480736B61BFF37D
:1031A0004F8FBFF36F8F4DF602739A4209D0AB6A0F
:1031B000DBB27BB3FA1D01212046FFF713FF034664
:1031C00006E02368374A3248012106F013FC2368E1
:1031D000FA79DAB907F1080504F1200C2068616872
:1031E0002A4603C2083464451546F7D17A6A002E90
:1031F00044D0C2F3080121B96FEA52226FEA422299
:103200007A6207F108011846FFF79CFD2837BD4692
:10321000BDE8F081AB6A13F47F4F04D0F91D0120A3
:10322000FFF724FECBE7AB6AB3F5803F9AD3FFF7F5
:1032300085FEC4E7FA1D0021BEE7F91D0020EFE777
:1032400019498CE7194A1A4B18F4F87FE8468AB0F6
:1032500018BF13466A461749C2E905134FF40073B5
:103260001384103D144BD56142F8103F08480023E9
:103270004FF41151FEF774F8C54673E722F4FF725C
:1032800022F00102BCE700BF00ED00E016BC000028
:10329000A0B0000041BC000058BC000079BC000098
:1032A00087BC0000A6BC0000C2BC0000FDBB000043
:1032B000E8BB0000E6BC000004000001044B5A69B2
:1032C00042F010025A615A6922F008025A617047AE
:1032D00000ED00E0EFF30880EFF3098101B57246DD
:1032E000FFF702FF01BD00BF03F010F8202080F3BC
:1032F000118808484FF40461401880F30988EFF3FF
:1033000014800221084380F31488BFF36F8F00F00C
:10331000C7F8000040260020084B9B6883420BD171
:10332000EFF3058343B1064B5A6842F080525A606E
:103330005A6A22F400425A6207F093BBD419002063
:1033400000ED00E0094A93686FF00A0199670849A7
:1033500058674B6843F080534B60002383F3118818
:10336000BFF36F8F9368986F704700BFD419002028
:1033700000ED00E010B50446EFF31183202383F342
:103380001288BFF36F8F0A4B58699860094B4FF052
:1033900000625A60084B026F1A600022436F426756
:1033A00083F31188BFF36F8F00F022F9204610BD20
:1033B000D419002000ED00E03C0E00200B498A6883
:1033C0004FF030001044EFF3098C80E8F01F744692
:1033D0007046FFF7CFFFA64604498A6802F1300025
:1033E00090E8F01F8CF3098870470000D419002082
:1033F0001EF0040F0CBFEFF30880EFF30980816922
:1034000011F8021C0229FFD001B506F0DCFC01BD59
:1034100040B2002807DB044A4109012300F01F00E5
:10342000834042F82130704700E100E040B20028BC
:103430000CDB4309064900F01F00203301228240C3
:1034400041F82320BFF34F8FBFF36F8F704700BF4A
:1034500000E100E0054B420900F01F0053F8222074
:10346000012303FA00F01040704700BF00E100E0C4
:1034700040B20028A8BF00F1604001F10101B8BFCF
:10348000064B4FEA4111ACBF00F5614000F00F0060
:10349000C9B2B4BF195480F80013704714ED00E0AE
:1034A0000F4A08B50F4B22F07F029A60BFF34F8F8F
:1034B000BFF36F8FD3F8882022F47002C3F88820FE
:1034C000EFF3148323F0040383F31488BFF36F8FA7
:1034D00003F030FF04F092FE00F060F803F06EFF9E
:1034E0000000000000ED00E042F8203C009B42F8A4
:1034F0001C3C0A49019B42F8183C029B42F8143CD0
:1035000021F001014FF0807342F8043C42F8081C9E
:103510000023203A02654367704700BFC90B0000D3
:10352000094A0346906870B113F1160F006E05D07A
:10353000A0F140029A4205D8834203D2814228BFBB
:103540000020704700207047D419002008B51546A8
:103550000B4A0C4B9060026F1A600E4600F048F860
:103560002C4686F309884FF00000074B9847204609
:103570004FF000014FF000024FF00003034C2047D2
:10358000D41900203C0E0020ED9D0000C90B000066
:10359000014B10221A61704700ED00E0044800233F
:1035A0002021C2180133302B82F80013F9D1704763
:1035B00000E100E008B5EFF30583064A103B02EB9B
:1035C000C30152F8330049688847BDE80840FFF757
:1035D00039BC00BFE8AE0000024B034A034801219A
:1035E00000F08AB80000042000000020D4B10000E0
:1035F000026E054B403A1A60044A4021C3E90112A9
:103600001846012100F082B8400E002000000B1582
:1036100008B503461048D0F89020C2F30722013ABB
:10362000934207D90D480E4A012106F0E3F96FF0E5
:10363000150008BDC0F898300A6822F01F021A432E
:1036400042F01002C0F89C208A6842F00102C0F8E3
:10365000A0201846EDE700BF00ED00E090B00000AC
:10366000FDBC0000F0B50E4685B01F46044600259F
:10367000B5420DDA606810B397B1431E18420AD004
:10368000104A11482B46012106F0B4F96FF01502DB
:10369000104605B0F0BD1F28F2D921680B42EFD1CA
:1036A0002368019306F0C5FBA36801A90343D0B2C8
:1036B0000393FFF7ADFF10F1160FE7D0421C013561
:1036C0000C34D5E723BD000090B00000044B052268
:1036D000C3F89420BFF34F8FBFF36F8F704700BFC5
:1036E00000ED00E0BFF35F8F024B0022C3F894208F
:1036F000704700BF00ED00E010B5034C01232278B5
:10370000FFF7B0FF207010BD251A002008B50B4A46
:1037100000231278FFF7A6FF10F1160F07D0084A12
:103720000021D2F89030C3F30723984200DB08BD94
:10373000C2F89800C2F8A0100130F2E7251A002064
:1037400000ED00E02DE9F04357485849D0F890309B
:103750000D68C3F307239D4285B000F2A180FFF7F7
:10376000C1FF49680022954201F10C011AD1504C69
:10377000504F25706846FEF7B1F8DFF83C81DFF85E
:103780003C9106460025AE421FD1237846490020D1
:10379000D1F89020C2F3072293427BDBFFF796FF1C
:1037A00000204CE0C0F8982051F80C3C23F01F0397
:1037B000134343F01003C0F89C3051F8043C43F02D
:1037C0000103C0F8A0300132CDE7009800EB0511ED
:1037D0004FEA051CCB683B40B3F5000F44D00AD834
:1037E000B3F5001F2ED0B3F5800F34D0B3F5801F92
:1037F00010D00135C7E7B3F1807F3ED0B3F1007F31
:10380000F7D150F80C3088684A6806F012FB40F493
:10381000802009E050F80C3088684A6806F009FBFF
:1038200040F0885040F43020039001A92078CDE981
:103830000123FFF7EDFE002828DA6FF0150005B030
:10384000BDE8F08350F80C3088684A6806F0F1FA59
:1038500040EA0800E8E750F80C3088684A6806F04B
:10386000E8FA40EA0900DFE750F80C3088684A6857
:1038700006F0DFFA40F08270D6E750F80C30886826
:103880004A6806F0D6FA40F08870CDE72378013315
:103890002370AEE7C1F89830C1F8A000013377E794
:1038A0004FF0FF30CBE700BF00ED00E0E0B10000DB
:1038B000251A00200000F0FF000008110000020798
:1038C00008B5024B1B689847002008BD4C0E00202D
:1038D000034B044A1860937843F0020393707047D7
:1038E0004C0E002018010020F0B587B007460E46A8
:1038F00014460021102268461D4607F05BFA022399
:103900008DF802302A46054B019321466846CDE9E1
:10391000047604F007FF07B0F0BD00BF539E00001F
:1039200008B50649064821F00701C1F1005202F529
:10393000802205F0E2FA002008BD00BF0743002006
:10394000500E0020024B0122C3F840250020704792
:1039500000E0014020B1034B800143F00103184710
:10396000704700BF00B10000020600F07F0312D5CF
:10397000082B05D1010700F00F0306D50E4870474C
:1039800010F0780F12D100F00F034C2000EB431021
:103990000A4B18447047082B05D1020700F00F03AB
:1039A00006D50748704710F0780FF6D00020704712
:1039B000044800EB43107047A80F00205C0E002065
:1039C000C8100020C80F00200149024806F03ABF85
:1039D000840E0020280900200146014806F0CFBED1
:1039E000C802002002480022002303F04BBE00BFA3
:1039F000C802002013B5124800F09AFF114B9842FC
:103A00001AD1114803F0F4FA0024104803F036FBF1
:103A10000F49104800944FF0FF334FF4806203F0D9
:103A2000AFFF0D490B4806F02FFF0C480C4906F07C
:103A3000EDFE204602B010BD6FF00400FAE700BFB3
:103A4000F13F00000000AD0B8ABF000004B200008F
:103A5000002200202809002059BD0000840E00200B
:103A6000E13B000010B50E49BFF35B8F002351E826
:103A7000002F012A03D141E800300028F7D1BFF31D
:103A80005B8F0CD151F8044C1439204605F02DFE03
:103A9000783004D12046BDE8104005F002BE10BDCC
:103AA0007C0E002038B5002464F07F00C0B2FFF720
:103AB0005BFF013406F0D8F9082CF5D10E4D002437
:103AC000E0B2FFF751FF036903B90561013406F065
:103AD000CBF9082C05F14005F2D1084806F0C4F9ED
:103AE000074BD3F87C2212B9064AC3F87C22064859
:103AF00006F0BAF9002038BDEC140020A80F002011
:103B00005C0E0020EC100020C810002010B5054C01
:103B1000FFF768FF20B14168204606F084FDF7E713
:103B200010BD00BF7802002007B500231448002212
:103B300001A903F0C5FCE8B1124A1348012106F0BF
:103B4000A6F9FFF7E3FF0E480022002301A903F0C6
:103B5000B7FC30B10D4A0C48012106F098F900205D
:103B60000AE00198042340600374FFF735FFFFF774
:103B70002BFFF4E70198406003B05DF804FB00BF41
:103B80007802002064BD0000D0B0000082BD0000BB
:103B90000346024A0248012105F02CBF9EBD0000E9
:103BA000D0B00000022810B511D80B4A145CFFF702
:103BB000BBFF80B1002202740472FFF70DFF074BB8
:103BC00093F824303BB1BDE81040FFF7FDBEBDE8DF
:103BD0001040FFF7DDBF10BD87BF00005C0E002066
:103BE0002DE9F043A24CDFF88C9285B08046FFF7B8
:103BF000F9FE074610B905B0BDE8F08394F825201A
:103C00003B7C3AB9002B00F09A807968994806F01D
:103C10000AFDECE7042B00F27581DFE813F0900059
:103C2000050012013D015E0118F8043C33B9BB6880
:103C30005B7A914A9148012105F0DCFE3B7BBD682F
:103C4000032B37D8DFE803F0023D63686E698C4BC5
:103C5000002232607260D3F880143170D3F884147B
:103C60007170D3F88814D3F88C0441EA0021718074
:103C7000D3F89014D3F8940441EA0021B180D3F82A
:103C80009814D3F89C3441EA0323F3800823EB60B3
:103C9000306871687B4B03C311462B68687A98477C
:103CA00096F90030002B08DBF38833B1A4F88C328E
:103CB00001F088F979684846A9E70023A4F88C3216
:103CC000F8E76B7F002BF5D02B7F002BF2D000267E
:103CD0004FF0FF326C486E774FF0FF332E7706F0CF
:103CE000D8F86B6901936B68CDE9023601A9687A4F
:103CF00000F074FE654A9042034604D0644A5F486F
:103D0000012105F077FE604806F0C5F8D2E72B6880
:103D10000121687A9847CDE7AB7A6BB9EB7F5BB945
:103D200059484FF0FF324FF0FF3306F0B2F801F080
:103D30004FF9554806F0AFF82B680221E9E73B7AC6
:103D4000042BB7D8DFE803F059032367730000F0B2
:103D5000BDFD05460028ADD100F0F8FCBFF35B8F38
:103D60004C49012351E8002F002A03D141E80030DB
:103D70000028F7D1BFF35B8F9CD141F8085C41F874
:103D8000105CE0696361143905F034FC92E70025AA
:103D900065F07F00C0B2FFF7E7FD037A13B1407A08
:103DA00001F07AFA0135082DF2D194F854311BB1A3
:103DB00094F8550101F070FA0025E8B2FFF7D4FD40
:103DC000037A13B1407A01F067FA0135082DF4D176
:103DD00094F874321BB194F8750201F05DFA00207A
:103DE00000F058FD012384F825302368002B3FF4B0
:103DF00061AF0021022098475CE7002584F8255038
:103E000001F0B0F9FFF72EFE2368002B3FF452AF0C
:103E100029460420EFE7002A3FF44CAF00F060FD94
:103E20002368002B3FF446AF00210520E3E7236819
:103E3000002B3FF43FAF002A3FF43CAF00210620A7
:103E4000D9E708F110054FF0FF334FF0FF32284655
:103E500006F01FF8FFF726FE284606F01CF858F873
:103E6000283C002B3FF426AF00210120C3E700BF10
:103E70005C0E002078020020B9BD0000D0B0000028
:103E800000700240600E0020940E00200000AD0B78
:103E9000DFBD00007C0E002094F8743263B1012570
:103EA00084F8895284F88852FFF73EFE60B9184AB8
:103EB0001848294605F0EBFF58F8283C002B3FF442
:103EC000F9AE00210A2096E7134A05740573826053
:103ED000FFF782FDFFF778FDEEE7104A0D4801215C
:103EE00005F0D5FF06F042FB01F03CF900F024FCA0
:103EF000FFF70CFEFFF7D6FD06F031FB084800F097
:103F000017FDD7E6074A0348012105F073FDD1E606
:103F100005BE0000D0B00000C810002019BE00008F
:103F2000F13F000030BE0000F7B5877806463846FE
:103F3000FFF71AFD3B06F47805461DD554B1032C56
:103F400006D0284A284800972346012105F05CFD49
:103F500003B0F0BDFFF7E8FD03460028F8D00122CA
:103F6000AC770274032202739D60FFF735FD03B046
:103F7000BDE8F040FFF728BD54B1012CE1D1FFF7B7
:103F8000D3FD03460028E3D06C7704740473EBE799
:103F9000FFF7CAFD0028DBD0B278144B12F0800F77
:103FA00002F0080111D041B1D3F8A836EB6001232B
:103FB0000374022303738560D7E702F00F02142114
:103FC00001FB0233D3F80836F0E711B1D3F8A83774
:103FD000ECE702F00F02142101FB0233D3F808379B
:103FE000E4E700BF48BE0000D0B00000007002400F
:103FF000F0B514228BB0064600210DEB020006F04E
:10400000D9FE3378013B052B21D8DFE803F08B0381
:1040100014147B1603238DF81C300024FFF784FD55
:104020000346A0B1047400F10802DDE9070182E84B
:104030000300184626E00423EDE7B7783846FFF77B
:1040400093FC837A054623B1013B022B54D90BB074
:10405000F0BD3B06F4781CD54CB1032CF7D0324AA6
:10406000324800972346012105F0CEFCEFE7FFF729
:104070005BFD03460028EAD00122AC7702740322DC
:1040800002739D60FFF7A8FC0BB0BDE8F040FFF79E
:104090009BBC54B1012CE2D1FFF746FD034600283A
:1040A000D5D06C7704740473EBE7FFF73DFD04464D
:1040B0000028CCD002230127037307748560B078F1
:1040C00005F10C0105F01EFF034620B1184A174800
:1040D000394605F08FFC174AE968B2F88C328B42FA
:1040E00006D95B1AA2F88C3200F06CFF2046C9E7B3
:1040F0000023A2F88C32F9E730460BB0BDE8F0405F
:10410000FFF712BF03A800F03BFF9DF80D30052B11
:1041100004D19DF80C3013F0600F98D0064B079334
:1041200001247BE7022479E748BE0000D0B00000FC
:1041300074BE00005C0E0020C80F002038B5164D7C
:1041400095F824402CBB05F1380006F0A4FA20466F
:1041500001F004FA22460121E8612720FFF788F9DF
:1041600006F0FDF9FFF79EFC044610B9012385F81F
:1041700024300A4B1B680BB1FFF726FC4FF080433D
:10418000D3F83834DB0702D50020FFF70BFD2046BB
:1041900038BD0024FBE700BF5C0E0020C8020020F1
:1041A000074B93F824203AB193F82530002B14BF25
:1041B00000206FF0120070476FF01200704700BFD0
:1041C0005C0E002008B50378027903F00F0142B9B4
:1041D00091B10D4A01210D4805F059FE4FF0FF3015
:1041E00008BD082901D90A4AF4E7012A04D11B07AE
:1041F00007D4084A0221EEE713F00800F0D0064A7F
:10420000F8E70020ECE700BF94BE0000D0B000004B
:10421000B3BE0000D2BE0000E8BE000038B5134BAC
:1042200093F824300446EBB105782846FFF79CFB51
:1042300088B14572237983726388436020786188EE
:1042400010F0080F0AD14B1E0B4207D0084A09484C
:10425000012105F01CFE6FF0150038BD05F04DFE84
:104260000020FAE76FF01200F7E700BF5C0E0020B5
:1042700005BF0000D0B0000038B5154B93F82420DE
:1042800005460AB393F82530F3B1FFF76DFB0446FA
:1042900010B96FF0150038BD817A01290FD007D908
:1042A0000239012907D96369A3610020E060F2E7C0
:1042B00000F094FEF7E7284600F036FEF3E7054AE3
:1042C000054805F0E4FDE4E76FF01200E3E700BF06
:1042D0005C0E00202DBF0000D0B0000038B50E4BA2
:1042E00093F82420054682B193F825306BB1FFF78F
:1042F0003BFB68B115F008040AD1284600F036FEF1
:10430000284601F001F8204638BD6FF01200FBE7A7
:104310006FF01500F8E700BF5C0E002038B50C4BBD
:1043200093F8242005460C4662B193F825304BB132
:10433000FFF71AFB48B144B1284600F0FDFD20709C
:10434000002038BD6FF01200FBE76FF01500F8E7B2
:104350005C0E002070B5134E96F824300446C3B1AD
:10436000FFF702FB0546B8B1230705D4204600F04D
:10437000FDFD204600F0C8FF2B7A83B901232B7284
:1043800096F825300BB9002070BD204600F084FF60
:10439000F9E76FF01200F7E76FF01500F4E76FF040
:1043A0007700F1E75C0E00202DE9F043DFF8F480A0
:1043B0001E4698F8243085B0074689461546002BDE
:1043C0006DD098F82530002B69D003060BD5FFF788
:1043D000CBFA044638B1037A5BB9334A33483B46DB
:1043E000012105F007FB6FF01504204605B0BDE87C
:1043F000F0834FF0FF334FF0FF3208F1380005F043
:1044000048FDA37F33B108F1380005F044FD6FF09B
:104410000A04EAE7A37A05B37BB30123A3774FF03D
:10442000000801A93846CDE90195CDF80C8000F0CF
:10443000D5FA1F4A904203462DD084F81E800EB153
:10444000C6F800801B4A1948012105F0D3FA6FF025
:104450000404194805F01FFDC7E7E27F02B1E577C4
:10446000002BDAD100F0C0FD8742D6D000F0B0FDBD
:10447000114805F010FD0024B7E7B8F80A309D4256
:10448000F0D26268B5FBF2F302FB1353002BE9D1C3
:104490000123E377E6E706B135600024D9E76FF042
:1044A0001204A2E75C0E00204FBF0000D0B0000055
:1044B0000000AD0B6EBF0000940E00202DE9F0410E
:1044C0001D46254B174693F8242080460E46002AA9
:1044D0003FD093F82530002B3BD010F0800F0ED149
:1044E00001B967B94046FFF73FFA044638B1037A8D
:1044F00043B91A4A1A484346012105F07BFA6FF086
:10450000150013E04FF0FF3316484FF0FF3205F06F
:10451000C0FCE3689F42B84628BF984646B93FB9F9
:1045200005B12B600F4805F0B6FC0020BDE8F08116
:10453000A1694246304606F02FFCA3694344A361BB
:10454000E368A3EB0803E360002DEBD0C5F800801F
:10455000E8E76FF01200E9E75C0E00204FBF0000B3
:10456000D0B00000940E002070B5224D95F8243094
:104570000646002B3AD095F82530002B36D003069E
:104580000BD4FFF7F1F9044638B1037A43B91A4A5C
:104590001A483346012105F02DFA6FF0150070BD61
:1045A0004FF0FF334FF0FF3205F1380005F071FC9A
:1045B000E368B3B9012663692677A361637F83B19A
:1045C000FFF7B2FA30B905F1380005F064FC6FF07E
:1045D0000B00E4E7067484600673FFF7FDF9FFF74C
:1045E000F3F9074805F057FC0020D8E76FF01200F8
:1045F000D5E700BF5C0E00204FBF0000D0B0000028
:10460000940E002010B5084B93F824300C462BB1C3
:10461000FFF7AAF928B10460002010BD6FF0120066
:10462000FBE76FF01500F8E75C0E0020014B186007
:10463000704700BF5C0E002008B5074B93F824308C
:1046400023B1FFF791F920B1406808BD6FF0120067
:10465000FBE76FF01500F8E75C0E00204FF0805389
:10466000D3F83021082A06D1D3F83431052B04D8E9
:10467000034AD05C7047002070470120704700BF9C
:1046800094BF0000064B10F0800FA3F1D80208BFC2
:10469000134600F00F00182202FB0030704700BFE5
:1046A00004180020EFF31180202383F31288BFF356
:1046B0006F8F0A4BD3F8001C032261B949F27531A0
:1046C000C3F8001CC3F8142DC3F8001C80F3118834
:1046D000BFF36F8F7047C3F8142DF7E700E0064073
:1046E000EFF31180202383F31288BFF36F8F0A4BFF
:1046F000D3F8001C61B949F27532C3F8002CC3F835
:10470000141DC3F8002C80F31188BFF36F8F70471E
:104710000022C3F8142DF6E700E006404FF0805366
:10472000D3F83031082B02BF024B0022C3F81C2CF7
:10473000704700BF00700240024A00231360024A23
:1047400013707047E41800202A1A002008B54A4B5D
:104750004FF40062C3F80024FFF780FF08B1FFF7B1
:10476000A1FF4FF08053D3F83031082B18D1EFF36D
:104770001180202383F31288BFF36F8F3F4BD3F850
:10478000001CC02200296ED149F27531C3F8001C0B
:10479000C3F8142CC3F8001C80F31188BFF36F8F8B
:1047A000354B0122C3F80025D3F800241205FBD5B0
:1047B0004FF40062C3F800244FF08053D3F8303137
:1047C000082B17D1EFF31180202383F31288BFF356
:1047D0006F8F2A4BD3F8001C002947D149F275325C
:1047E000C3F8002CC3F8141CC3F8002C80F3118804
:1047F000BFF36F8FFFF732FF30B1FFF771FFFFF7A5
:104800002DFF08B1FFF74EFF4FF08053D3F8303142
:10481000082B194B0AD140F2E372C3F8002840225A
:10482000C3F80428BFF36F8FBFF34F8F8022C3F804
:104830001C250122C3F83025114B40F2FF121A60EB
:10484000104B00211960104B1970FFF767FF0F4BD9
:1048500019700F4B02221A70FFF700FF50B1BDE82C
:104860000840FFF73DBFC3F8142C95E70022C3F8BA
:10487000142CBBE708BD00BF0070024000E00640FA
:10488000E0180020DC180020261A0020281A00203A
:104890002A1A0020094B002210B51A70084A094B49
:1048A000094C002808BF1346C4F800332720FEF740
:1048B000AFFD0123C4F8043510BD00BF291A002044
:1048C000FDFFDF01FDFFFF0100700240034B187880
:1048D000012894BF00200120704700BF2A1A002041
:1048E00010B5EFF31181202383F31288BFF36F8F8C
:1048F0000D4B1B7803F0FF0083B10C4BD3F8002461
:1049000012F400720AD10124C3F82C45D3F82C45C7
:10491000D3F80044A40502D5C3F82C25002081F368
:104920001188BFF36F8F10BD291A0020007002405C
:10493000F8B51C4B1C7894BB1B4A106001221A70FE
:1049400040F2FF17264664F07F0514F0080FEDB221
:1049500014BF39464021284605F0CFFA2846FFF714
:1049600091FE0134092C867506730661EBD1002493
:1049700040F2FF17254614F0080FE6B214BF39467F
:104980004021304605F0B9FA3046FFF77BFE01348E
:10499000092C857505730561EDD10448F8BD0448FF
:1049A000FCE700BF2A1A0020E41800200000AD0B2D
:1049B0000500AD0B084B10F0800F00F00F0114BF85
:1049C000D3F81025D3F8142501238B40134214BFCC
:1049D00001200020704700BF007002402DE9F8431D
:1049E0000246EFF31187202383F31288BFF36F8F02
:1049F000030703D1184B1B78834229D1174B184E5C
:104A00001C683568104605F070FAE443A4B24FF014
:104A100001092C4309FA00F814EA08041AD11046D7
:104A2000FFF730FE80F80C90034607C91C6183E84D
:104A300007009C750B4B0C4845EA08058022356041
:104A4000C3F8042187F31188BFF36F8FBDE8F883A3
:104A50000648F7E70648F5E7281A0020E018002086
:104A6000DC18002000E100E00000AD0B0A00AD0BF7
:104A70000B00AD0B10F0080F074B06D0D3F8C004A5
:104A800010F4803F18BF0020704700F00F0000F5C1
:104A9000947053F820007047007002402DE9F74FE2
:104AA000A74BA84ED3F85421DAB10022C3F8542101
:104AB000D3F80413890214D58DF80420D3F82025E7
:104AC000ADF80620D3F8C034002B336814BF4FF084
:104AD00001224FF48072134333609B4B01A81B6883
:104AE0009847974BD3F8604134B10022C3F8602156
:104AF000D3F86C44C3F86C44D3F828214AB100229F
:104B0000C3F82821914B187805F0EFF90123834071
:104B10001C43DFF83C828F4F98F8005098F90090C2
:104B200015F0080143D1B9F1000F05F00F032EDA9B
:104B3000894A52F8230020B342F823101422534329
:104B400003F1804303F51C33D3F80836834A117808
:104B500003F001034B401370FFF7E0FD804802F0C3
:104B6000C3FD2846FFF78EFD837D032B37D12846F2
:104B700005F0BBF9012303FA00F03B6823EA0003C8
:104B80003B60DFF8C4A101254FF006095DE0754ADE
:104B900052F823000028F4D042F823101422534383
:104BA00003F1804303F51C33D3F80837CEE7B9F19E
:104BB000000F634B09DBD3F85021002AE1D000221B
:104BC000C3F85021D3F8A837C0E7D3F82C21002A26
:104BD000D7D00022C3F82C21D3F8A836B6E7037B40
:104BE000DBB9284605F081F9012303FA00F03B68A0
:104BF000B9F1000F23EA00033B6001DA882DC0D130
:104C000006238DF8043000238DF807304E4B8DF8C5
:104C100006501B6801A89847B3E7002DB1D1484B57
:104C20000122DA64ADE794FAA4F03268B0FA80F0B9
:104C300005FA00F31A430F28326024EA03043A68A5
:104C400040F39480134200F0A180002CEBD13C4B48
:104C5000D3F800215AB1C3F80041434B1C703B4BC1
:104C60001C7001230193384B01A81B689847344BF3
:104C7000D3F85821002A2ED00022C3F85821D3F8A7
:104C80000044C3F80044E30508D5374B01221A70ED
:104C9000022301932C4B01A81B689847A50508D552
:104CA000314B00221A7003230193274B01A81B6884
:104CB000984760050FD52C4B1A7862B100221A7004
:104CC0001F4B0122C3F808259A65042301931E4B4C
:104CD00001A81B6898471A4BD3F85C3103B3204BEB
:104CE0009B681BB998F80030590619D0144B002264
:104CF000C3F85C21D3F88034144A23F07F03137087
:104D00003B6823F001133B60336823F4803343F0A6
:104D100001033360052301930B4B01A81B689847DF
:104D20003A6833681A4207D00D480022002302F087
:104D3000FFFC002800F09E8003B0BDE8F08F00BFAC
:104D400000700240E0180020E4180020281A00201B
:104D5000271A0020DC18002008710240261A0020C3
:104D6000A802002030710240291A002013407FF46D
:104D70006CAF60F07F018DF804908DF806108DF80F
:104D80000730DAF8003001A898475EE7A0F110017B
:104D90008DF804908DF806108DF80750F1E719F0A2
:104DA000012314BF93FAA3F999FAA9F9B9FA89F979
:104DB000B9F10F0F18D9A9F11005EDB22846FFF788
:104DC00061FC04462846FFF755FE6368B4F814C03A
:104DD0002268984230D81B1A00EB020E114663601D
:104DE000C4F800E082462AE049F080052846FFF733
:104DF00049FC4368B0F814A001689A4528BF9A4658
:104E000001F06043B3F1005F044604D042485246CB
:104E100005F0C2FF40492268636852442260A268DC
:104E2000A3EB0A03D20768B2636032D5BAF1000F70
:104E300031D1002323732EE011464FF0000A604564
:104E400024D1003B18BF012312B3504520D90123C0
:104E500003FA09F32BEA03033B6006238DF80430C1
:104E60002E4B8DF8065002221B68A2758DF8072084
:104E700001A89847D7F800B033681BEA03098ED120
:104E8000274803B0BDE8F04F02F02EBC0023DBE75B
:104E900068B2002BCDD04FF08053D3F83031082BBF
:104EA00002BF204B8222C3F81C2C336888F80050C4
:104EB000012202FA09F923EA09033360236915F094
:104EC000080F53442361174B17D1002805F00F0535
:104ED0004FF0140000FB0530B5BF03EB85030A3526
:104EE000C0F80016C0F80017B5BFC0F804A6C0F897
:104EF00004A75A6043F825201EE70028B5BFC3F871
:104F0000A016C3F8A017C3F8A4A6C3F8A4A7B4BFFB
:104F10005A629A6410E700BFEC160020E4180020E3
:104F2000A802002000700240024B40F48070C3F8D9
:104F30001805704700700240030713D400F00F03F8
:104F400010F0800F084A0BBF03F5887303F58473D4
:104F500002EB830252F8230008BF5068003818BFE4
:104F6000012070470020704700700240034BC3F8D7
:104F70000C0540F48070C3F80C05704700700240C7
:104F80000023036043600E4BD3F880240270D3F8F3
:104F900084244270D3F88824D3F88C1442EA012286
:104FA0004280D3F89024D3F8941442EA01228280FC
:104FB000D3F89824D3F89C3442EA0323C380704783
:104FC00000700240014B0122DA6470470070024019
:104FD000014B01221A65704700700240014B01220B
:104FE0005A65704700700240014B1878704700BF47
:104FF000281A002010B50246EFF31184202383F312
:105000001288BFF36F8F04F070FF0B49012303FA7E
:1050100000F00B6823EA00030B6012F0080101BFE7
:1050200002F00F02054B02F5947243F8221084F34C
:105030001188BFF36F8F10BDE01800200070024090
:10504000F7B50146EFF31185202383F31288BFF3F0
:105050006F8FFFF717FB0646084604F046FF012254
:1050600011F0800F02FA00F22D4818D1036832EADD
:1050700003040AD00846FFF7BDFF0323B37585F389
:105080001188BFF36F8F03B0F0BD2649347323EA54
:10509000020303600B6823EA02030B60EDE70B07D2
:1050A00015D48029204B2FD001F00F0404F2DA34FC
:1050B0006400C3F80048D3F80448D3F80478E4B295
:1050C00044F002043C43C3F80448D3F80438154FB5
:1050D00004683B6864EA030C1CEA020FCFD0134358
:1050E0003B60002333730323B3758DF807300F4BF8
:1050F0008DF8061024EA0204062204601B688DF86D
:10510000042001A89847BAE740F2B474C3F80048F5
:10511000D3F80448D3F80478E4B244F00404D1E7A7
:10512000DC180020E018002000700240E418002085
:1051300038B50446094D4FF0FF324FF0FF33284693
:1051400002F0F6FA2046FFF77BFF284602F0CCFA81
:10515000034B8022C3F8042138BD00BFA802002001
:1051600000E100E0F8B54FF0FF324FF0FF332B487D
:1051700002F0DEFA2A4B8022C3F884212720FEF7B2
:1051800069F998B1274E284B34681B68240C240415
:105190001C43012764BB254D40F2FF1333602720D9
:1051A000C5F80445FEF742F9C5F80043204A1378D4
:1051B0008BB11E4B0021C3F808110121C3F8002652
:1051C000C3F804165960D3F808110029FBD0002158
:1051D000C3F808111170154B0022C3F80025FFF722
:1051E0009DFA0E4802F080FA124B01221A70F8BDA7
:1051F00094FAA4F5B5FA85F50F2D2846C6BFA5F19A
:105200001000C0B240F08000030701D4FFF718FF80
:1052100007FA05F524EA0504BCE700BFA802002050
:1052200000E100E0E0180020DC18002000700240DF
:10523000261A00202A1A002010B504464FF0FF322B
:105240004FF0FF33114802F073FA2046FFF7F8FEE3
:1052500004F00F02012393400D4A14F0800F14BF95
:10526000D2F81015D2F814156FEA030315BF0B40DE
:105270000B40C2F81035C2F81435044802F034FA75
:10528000044B8022C3F8042110BD00BFA8020020F7
:105290000070024000E100E070B50446FFF78AFBB1
:1052A00068B904F00F02012514F0800F144B05FAC1
:1052B00002F205D0D3F810150A43C3F8102570BDCB
:1052C000D3F814150A43C3F81425631E062BF6D829
:1052D000EFF31186202383F31288BFF36F8F2046EC
:1052E000FFF788FE204604F000FE064A136885405A
:1052F00023EA0503136086F31188BFF36F8FDEE79F
:1053000000700240DC180020030610B5044605D4E6
:10531000FFF712FE10B12046FFF76CFE014BC3F8F9
:10532000184510BD00700240084B70B5C31A0D46F9
:1053300007499B10044659430648402204F001FEE9
:105340002B4601462046BDE870401847FC18002057
:10535000B76DDBB670AE000073B50C4C0C4A402341
:10536000041B00930D460B460A49A41061430646F0
:10537000094804F011FE011E05DA30462B4602B042
:10538000BDE87040184702B070BD00BFFC18002097
:1053900001A00000B76DDBB670AE0000002270B552
:1053A000012104461046FEF763F8114801F038F970
:1053B000104B984218D1206900F0CCF901F042F965
:1053C00026690D49304604F002F900280BDB01255F
:1053D00035642469084904F11C0004F0F8F8002839
:1053E00001DBE564002070BD6FF00400FBE700BF47
:1053F000B15400000000AD0B08B200001FB5002240
:105400000123CDE90223094ACDF800D06B46CDF83F
:1054100004D004F0EEFD002805DB4FF480420023A9
:10542000684602F085F905B05DF804FB19A000009C
:1054300010B5EFF31184202383F31288BFF36F8F2D
:10544000074A136823F00201DB07116002D4012030
:1054500004F0F7FF84F31188BFF36F8F10BD00BF16
:105460004C19002030B4104B0C2202FB00330146D3
:105470000020D3E90E529863EFF31180202484F3C7
:105480001288BFF36F8F1C6C04F0C00444F0020458
:105490001C6480F31188BFF36F8F1DB12B46034846
:1054A00030BC184730BC7047FC18002070AE0000BC
:1054B000012810B504460AD004280CD078B9084B4E
:1054C0001B6C5B070BD1BDE81040FFF7CBBF00F0B2
:1054D0004FF92046F7E7BDE8104000F057B910BD7E
:1054E000FC18002010B4EFF31182202383F31288FC
:1054F000BFF36F8F1748016841F002040460C807CA
:1055000007D482F31188BFF36F8F012010BC01F024
:10551000B1B84FF08041D1F80C04D1F80C14C90790
:10552000EFD5EFF3118083F31288BFF36F8F0A4931
:105530000B6C03F0C00343F002030B6480F311888B
:10554000BFF36F8F82F31188BFF36F8F002010BC01
:10555000FFF788BF4C190020FC180020024AC3B294
:105560001C2003FB00207047FC180020F8B52849D8
:10557000BFF35B8F0646012251E8003F41E800205F
:105580000028F9D1BFF35B8F33B9224922484B6021
:10559000CB608A6004F02EF8731E012B1DD805F035
:1055A0006DF90446D0B91D4B1B78BBB14FF0804359
:1055B0000222C3F8082305464FF08047D7F8182485
:1055C000D7F81834D20312D59B0701D0012E0ED183
:1055D000BCB185F31188BFF36F8FF8BDEFF3118570
:1055E000202383F31288BFF36F8F0124E4E71CB1FB
:1055F000284604F00FFCE1E70021212002F024FD01
:10560000DCE74FF080430222C3F80423E5E700BF44
:10561000F8180020E818002018190020501A00205F
:105620000D4BBFF35B8F012253E8001F002903D10C
:1056300043E800200028F7D1BFF35B8F0AD1074968
:105640000023CB60064B4B6003238B60054B18682F
:1056500003F0D0BF704700BF6C1900205419002020
:10566000295700005019002007B500220023CDE97A
:10567000002308484FF40032002302F089FF064B54
:10568000186804F00EF8054B00221A6003B05DF8AC
:1056900004FB00BF40020020501900206C190020BC
:1056A000F7B51C4E1C4CB7681C4DFB683C213046BE
:1056B000984740B1002323702B8001F02DF801237F
:1056C000237003B0F0BD0C213B696A463046984711
:1056D0000028EFD1124A019B93FBF2F3009A217844
:1056E00003EB82031BB2B5F900200029E4D09A1A1B
:1056F000002AB8BF524212B2012ADDDC094A1368FF
:10570000013901332170136003B0BDE8F040FFF7A9
:10571000ABBF00BFD4AE00002B1A00200C1A002033
:1057200090D003006419002008B5074804F031FF49
:1057300028B900F0F1FF054B01221A7008BDBDE841
:105740000840034802F016B9D4AE00002B1A00201E
:1057500028010020034B044A186000231360034A09
:105760001360704750190020681900206419002048
:10577000024B00221A70FFF753BF00BF2B1A002004
:10578000014805F01EBA00BF40020020024A13681B
:1057900001331360FFF768BF6819002008B5074898
:1057A00004F0F7FE38B10648FEF792F80448FBF71C
:1057B00005FA002008BD6FF01200FBE7ACAE000058
:1057C000C55700000A2838B5074D044604D1AB6818
:1057D0000D215B6828469847AB6803485B68E1B2D7
:1057E0009847204638BD00BFACAE0000F0B5406819
:1057F000057B01F01F0444EA4514056987B0002DBC
:1058000064D0B2F5001F00F1100506D121462846EC
:1058100004F097FE002007B0F0BD01AE0027B2F5FE
:10582000800F0197776039D1B3F1007F14BF052352
:1058300004238DF804300023CDE9046303938368C7
:1058400023FA01F111F001011AD1B2F1A07F17D1B1
:1058500004F01F03620903F5E0732AD0012A3BD14B
:105860001F4A52F82330DB070AD40DF103063246F3
:105870002146284601F022FA1A4B98421CD0029683
:1058800003AA2146284601F0DBF8174B984220D1A5
:1058900001222146284601F075FABBE7B3F1C06F3B
:1058A00005D0B3F1007F14BF01230223C1E7032316
:1058B000BFE74FF0A042D4E73146284601F05CFA3A
:1058C000094B9842DBD06FF00B00A4E76FF0850026
:1058D000A1E76FF015009EE751F82330FFDE00BF0F
:1058E000000300500400AD0B0000AD0B38B5456857
:1058F0002B69B3B11035284601F02EFA044680B961
:105900000146284601F0F4F9084B98420BD10849AA
:105910002246284601F0CCF9224605210620FDF753
:10592000A7FD002038BD6FF00400FBE70000AD0BC1
:1059300035590000420970B5034602D0012A17D03C
:1059400070BD0D4E326951680029F9D003F01F0374
:1059500001250C689D400029F2D08A682A4002D0B7
:105960004B68304698472CB1236821461C46F2E725
:10597000024EE7E72346F8E798AE000084AE000049
:105980002DE9F043466840F20635D006337B87B0F8
:1059900002EA050554BFC2F34010032001F01F07BF
:1059A000B5F5837F144647EA43178DF8030044D0CA
:1059B0000FD8062D18D007D8B5B1022D3FD06FF003
:1059C000150007B0BDE8F083B5F5807FF7D101255C
:1059D0000AE040F20222954233D0B5F5407F32D042
:1059E000B5F5007FEBD1022522032ED57268012385
:1059F0008B40C2F80835326992BB07F01F037F095C
:105A00002BD0012F79D13F4A02EB830284F48033FB
:105A1000D2F80017C3F30043C4F3404444EA4304FC
:105A200021F4E16144EA800421F0070144EA0523FE
:105A30000B43C2F800370020C3E70725D4E704254D
:105A4000D2E70525D0E70325CEE7630341BF012355
:105A500072688B40C2F80C35CDE74FF0A042D3E717
:105A600010360DF102023946304601F027F914F4E0
:105A7000403F80460CD13946304604F060FD224B51
:105A80009845D8D19DF80210304601F06FF9D2E761
:105A900001AB4FF0000903AA39463046CDE904397D
:105AA000CDE90199CDF80C9000F0CAFF164B984251
:105AB00085D114F4003315D09DF803308DF80E30E5
:105AC00084F48034C4F300444B4603AA394630467C
:105AD0008DF80C508DF80D4001F06CF80A4B98428F
